{
  "contractName": "Manager",
  "abi": [
    {
      "inputs": [],
      "stateMutability": "nonpayable",
      "type": "constructor"
    },
    {
      "anonymous": false,
      "inputs": [
        {
          "indexed": false,
          "internalType": "uint256",
          "name": "feeCharged",
          "type": "uint256"
        },
        {
          "indexed": false,
          "internalType": "uint256",
          "name": "contractBalance",
          "type": "uint256"
        }
      ],
      "name": "CommissionCharged",
      "type": "event"
    },
    {
      "anonymous": false,
      "inputs": [
        {
          "indexed": false,
          "internalType": "uint256",
          "name": "amount",
          "type": "uint256"
        }
      ],
      "name": "FundsReceived",
      "type": "event"
    },
    {
      "anonymous": false,
      "inputs": [
        {
          "indexed": true,
          "internalType": "address",
          "name": "previousOwner",
          "type": "address"
        },
        {
          "indexed": true,
          "internalType": "address",
          "name": "newOwner",
          "type": "address"
        }
      ],
      "name": "OwnershipTransferred",
      "type": "event"
    },
    {
      "stateMutability": "payable",
      "type": "fallback",
      "payable": true
    },
    {
      "inputs": [],
      "name": "owner",
      "outputs": [
        {
          "internalType": "address",
          "name": "",
          "type": "address"
        }
      ],
      "stateMutability": "view",
      "type": "function",
      "constant": true
    },
    {
      "inputs": [],
      "name": "renounceOwnership",
      "outputs": [],
      "stateMutability": "nonpayable",
      "type": "function"
    },
    {
      "inputs": [
        {
          "internalType": "address",
          "name": "newOwner",
          "type": "address"
        }
      ],
      "name": "transferOwnership",
      "outputs": [],
      "stateMutability": "nonpayable",
      "type": "function"
    },
    {
      "stateMutability": "payable",
      "type": "receive",
      "payable": true
    },
    {
      "inputs": [
        {
          "internalType": "string",
          "name": "_eventName",
          "type": "string"
        },
        {
          "internalType": "string",
          "name": "_eventDate",
          "type": "string"
        },
        {
          "internalType": "string",
          "name": "_eventDescription",
          "type": "string"
        },
        {
          "internalType": "enum EventType",
          "name": "_eventType",
          "type": "uint8"
        },
        {
          "internalType": "uint256",
          "name": "_price",
          "type": "uint256"
        },
        {
          "internalType": "enum TicketStatus",
          "name": "_status",
          "type": "uint8"
        },
        {
          "internalType": "enum TransferStatus",
          "name": "_transferStatus",
          "type": "uint8"
        }
      ],
      "name": "createTicket",
      "outputs": [
        {
          "internalType": "address",
          "name": "_ticket",
          "type": "address"
        }
      ],
      "stateMutability": "nonpayable",
      "type": "function"
    },
    {
      "inputs": [
        {
          "internalType": "uint256",
          "name": "_ticketIndex",
          "type": "uint256"
        }
      ],
      "name": "showAllTickets",
      "outputs": [
        {
          "internalType": "address",
          "name": "ticketAddress",
          "type": "address"
        },
        {
          "internalType": "bytes32",
          "name": "idTicket",
          "type": "bytes32"
        },
        {
          "internalType": "string",
          "name": "eventName",
          "type": "string"
        },
        {
          "internalType": "string",
          "name": "eventDate",
          "type": "string"
        },
        {
          "internalType": "uint256",
          "name": "price",
          "type": "uint256"
        },
        {
          "internalType": "string",
          "name": "eventDescription",
          "type": "string"
        },
        {
          "internalType": "enum EventType",
          "name": "eventType",
          "type": "uint8"
        },
        {
          "internalType": "enum TicketStatus",
          "name": "status",
          "type": "uint8"
        },
        {
          "internalType": "enum TransferStatus",
          "name": "transferStatus",
          "type": "uint8"
        },
        {
          "internalType": "address",
          "name": "owner",
          "type": "address"
        }
      ],
      "stateMutability": "view",
      "type": "function",
      "constant": true
    },
    {
      "inputs": [
        {
          "internalType": "address",
          "name": "_ticketAddress",
          "type": "address"
        }
      ],
      "name": "showTicketsByAddress",
      "outputs": [
        {
          "internalType": "address",
          "name": "ticketAddress",
          "type": "address"
        },
        {
          "internalType": "bytes32",
          "name": "idTicket",
          "type": "bytes32"
        },
        {
          "internalType": "string",
          "name": "eventName",
          "type": "string"
        },
        {
          "internalType": "string",
          "name": "eventDate",
          "type": "string"
        },
        {
          "internalType": "uint256",
          "name": "price",
          "type": "uint256"
        },
        {
          "internalType": "string",
          "name": "eventDescription",
          "type": "string"
        },
        {
          "internalType": "enum EventType",
          "name": "eventType",
          "type": "uint8"
        },
        {
          "internalType": "enum TicketStatus",
          "name": "status",
          "type": "uint8"
        },
        {
          "internalType": "enum TransferStatus",
          "name": "transferStatus",
          "type": "uint8"
        },
        {
          "internalType": "address",
          "name": "owner",
          "type": "address"
        }
      ],
      "stateMutability": "view",
      "type": "function",
      "constant": true
    },
    {
      "inputs": [
        {
          "internalType": "address",
          "name": "_owner",
          "type": "address"
        }
      ],
      "name": "showTicketsPerUser",
      "outputs": [
        {
          "internalType": "contract Ticket[]",
          "name": "userTickets",
          "type": "address[]"
        }
      ],
      "stateMutability": "view",
      "type": "function",
      "constant": true
    },
    {
      "inputs": [
        {
          "internalType": "contract Ticket",
          "name": "ticket",
          "type": "address"
        },
        {
          "internalType": "address",
          "name": "_newOwner",
          "type": "address"
        }
      ],
      "name": "transferTicket",
      "outputs": [],
      "stateMutability": "payable",
      "type": "function",
      "payable": true
    },
    {
      "inputs": [
        {
          "internalType": "contract Ticket",
          "name": "ticket",
          "type": "address"
        },
        {
          "internalType": "uint256",
          "name": "_newPrice",
          "type": "uint256"
        }
      ],
      "name": "changeTicketPrice",
      "outputs": [],
      "stateMutability": "payable",
      "type": "function",
      "payable": true
    },
    {
      "inputs": [
        {
          "internalType": "contract Ticket",
          "name": "_ticket",
          "type": "address"
        },
        {
          "internalType": "uint256",
          "name": "_newStatus",
          "type": "uint256"
        }
      ],
      "name": "changeTransferStatus",
      "outputs": [],
      "stateMutability": "nonpayable",
      "type": "function"
    },
    {
      "inputs": [],
      "name": "showStatistics",
      "outputs": [
        {
          "internalType": "uint256",
          "name": "totalTickets",
          "type": "uint256"
        },
        {
          "internalType": "uint256",
          "name": "averagePriceForTicket",
          "type": "uint256"
        },
        {
          "internalType": "uint256",
          "name": "contractBalance",
          "type": "uint256"
        }
      ],
      "stateMutability": "view",
      "type": "function",
      "constant": true
    },
    {
      "inputs": [
        {
          "internalType": "uint256",
          "name": "_ticketPositionInArray",
          "type": "uint256"
        }
      ],
      "name": "deleteTicket",
      "outputs": [],
      "stateMutability": "nonpayable",
      "type": "function"
    }
  ],
  "bytecode": "0x608060405260056001553480156200001657600080fd5b50620000376200002b6200003d60201b60201c565b6200004560201b60201c565b62000109565b600033905090565b60008060009054906101000a900473ffffffffffffffffffffffffffffffffffffffff169050816000806101000a81548173ffffffffffffffffffffffffffffffffffffffff021916908373ffffffffffffffffffffffffffffffffffffffff1602179055508173ffffffffffffffffffffffffffffffffffffffff168173ffffffffffffffffffffffffffffffffffffffff167f8be0079c531659141344cd1fd0a4f28419497f9722a3daafe3b4186f6b6457e060405160405180910390a35050565b61467b80620001196000396000f3fe608060405260043610620000bb5760003560e01c80638da5cb5b116200006d5780638da5cb5b1462000231578063906802431462000261578063af0432db1462000293578063c365d5d714620002e0578063d0c451c01462000324578063f2fde38b146200037157620000fc565b80631b308d7b146200013757806320591432146200017b578063374ad65514620001a9578063411f93d114620001c95780635a93fb2d14620001e9578063715018a6146200021757620000fc565b36620000fc577fbcdc7071c1beb6dcf2744621e0b29a2f2432ee20812d9ca5e3d5e8f9308d93a334604051620000f2919062001e96565b60405180910390a1005b7fbcdc7071c1beb6dcf2744621e0b29a2f2432ee20812d9ca5e3d5e8f9308d93a3346040516200012d919062001e96565b60405180910390a1005b3480156200014457600080fd5b506200016360048036038101906200015d919062001f2c565b6200039f565b60405162000172919062002086565b60405180910390f35b3480156200018857600080fd5b50620001a76004803603810190620001a1919062002120565b62000535565b005b620001c76004803603810190620001c1919062002120565b6200067a565b005b620001e76004803603810190620001e1919062002167565b62000863565b005b348015620001f657600080fd5b506200021560048036038101906200020f9190620021ae565b62000ddc565b005b3480156200022457600080fd5b506200022f620013df565b005b3480156200023e57600080fd5b5062000249620013f7565b604051620002589190620021f1565b60405180910390f35b3480156200026e57600080fd5b506200027962001420565b6040516200028a939291906200220e565b60405180910390f35b348015620002a057600080fd5b50620002bf6004803603810190620002b99190620021ae565b6200146c565b604051620002d79a9998979695949392919062002422565b60405180910390f35b348015620002ed57600080fd5b506200030c6004803603810190620003069190620026b0565b62001555565b6040516200031b9190620021f1565b60405180910390f35b3480156200033157600080fd5b506200035060048036038101906200034a919062001f2c565b62001731565b604051620003689a9998979695949392919062002422565b60405180910390f35b3480156200037e57600080fd5b506200039d600480360381019062000397919062001f2c565b620017d9565b005b60606000600360008473ffffffffffffffffffffffffffffffffffffffff1673ffffffffffffffffffffffffffffffffffffffff16815260200190815260200160002080549050905060008167ffffffffffffffff811115620004075762000406620024f1565b5b604051908082528060200260200182016040528015620004365781602001602082028036833780820191505090505b50905060005b828110156200052a57600360008673ffffffffffffffffffffffffffffffffffffffff1673ffffffffffffffffffffffffffffffffffffffff1681526020019081526020016000208181548110620004995762000498620027c0565b5b9060005260206000200160009054906101000a900473ffffffffffffffffffffffffffffffffffffffff16828281518110620004da57620004d9620027c0565b5b602002602001019073ffffffffffffffffffffffffffffffffffffffff16908173ffffffffffffffffffffffffffffffffffffffff1681525050808062000521906200281e565b9150506200043c565b508092505050919050565b813373ffffffffffffffffffffffffffffffffffffffff16600260008373ffffffffffffffffffffffffffffffffffffffff1673ffffffffffffffffffffffffffffffffffffffff16815260200190815260200160002060009054906101000a900473ffffffffffffffffffffffffffffffffffffffff1673ffffffffffffffffffffffffffffffffffffffff161462000606576040517f08c379a0000000000000000000000000000000000000000000000000000000008152600401620005fd90620028e1565b60405180910390fd5b8273ffffffffffffffffffffffffffffffffffffffff166337b7196d836040518263ffffffff1660e01b815260040162000641919062001e96565b600060405180830381600087803b1580156200065c57600080fd5b505af115801562000671573d6000803e3d6000fd5b50505050505050565b813373ffffffffffffffffffffffffffffffffffffffff16600260008373ffffffffffffffffffffffffffffffffffffffff1673ffffffffffffffffffffffffffffffffffffffff16815260200190815260200160002060009054906101000a900473ffffffffffffffffffffffffffffffffffffffff1673ffffffffffffffffffffffffffffffffffffffff16146200074b576040517f08c379a00000000000000000000000000000000000000000000000000000000081526004016200074290620028e1565b60405180910390fd5b60006064600154846200075f919062002903565b6200076b91906200297d565b905080341015620007b3576040517f08c379a0000000000000000000000000000000000000000000000000000000008152600401620007aa9062002a2b565b60405180910390fd5b8373ffffffffffffffffffffffffffffffffffffffff1663a2b40d19846040518263ffffffff1660e01b8152600401620007ee919062001e96565b600060405180830381600087803b1580156200080957600080fd5b505af11580156200081e573d6000803e3d6000fd5b505050507f53086389951ad40ccb64b8515696f21eaa9fa7ab5cdeff120fc91e15a4c3b50734476040516200085592919062002a4d565b60405180910390a150505050565b600060018111156200087a576200087962002300565b5b8273ffffffffffffffffffffffffffffffffffffffff16631a6fb3426040518163ffffffff1660e01b8152600401602060405180830381865afa158015620008c6573d6000803e3d6000fd5b505050506040513d601f19601f82011682018060405250810190620008ec919062002a91565b600181111562000901576200090062002300565b5b1462000944576040517f08c379a00000000000000000000000000000000000000000000000000000000081526004016200093b9062002b39565b60405180910390fd5b600060028111156200095b576200095a62002300565b5b8273ffffffffffffffffffffffffffffffffffffffff16634e69d5606040518163ffffffff1660e01b8152600401602060405180830381865afa158015620009a7573d6000803e3d6000fd5b505050506040513d601f19601f82011682018060405250810190620009cd919062002b72565b6002811115620009e257620009e162002300565b5b1462000a25576040517f08c379a000000000000000000000000000000000000000000000000000000000815260040162000a1c9062002c1a565b60405180910390fd5b8173ffffffffffffffffffffffffffffffffffffffff166398d5fdca6040518163ffffffff1660e01b8152600401602060405180830381865afa15801562000a71573d6000803e3d6000fd5b505050506040513d601f19601f8201168201806040525081019062000a97919062002c53565b34101562000adc576040517f08c379a000000000000000000000000000000000000000000000000000000000815260040162000ad39062002cfb565b60405180910390fd5b8073ffffffffffffffffffffffffffffffffffffffff163373ffffffffffffffffffffffffffffffffffffffff161462000b4d576040517f08c379a000000000000000000000000000000000000000000000000000000000815260040162000b449062002d93565b60405180910390fd5b6000600260008473ffffffffffffffffffffffffffffffffffffffff1673ffffffffffffffffffffffffffffffffffffffff16815260200190815260200160002060009054906101000a900473ffffffffffffffffffffffffffffffffffffffff1690508073ffffffffffffffffffffffffffffffffffffffff168273ffffffffffffffffffffffffffffffffffffffff160362000c22576040517f08c379a000000000000000000000000000000000000000000000000000000000815260040162000c199062002e05565b60405180910390fd5b60008173ffffffffffffffffffffffffffffffffffffffff163460405162000c4a9062002e5c565b60006040518083038185875af1925050503d806000811462000c89576040519150601f19603f3d011682016040523d82523d6000602084013e62000c8e565b606091505b50509050600115158115151462000cdc576040517f08c379a000000000000000000000000000000000000000000000000000000000815260040162000cd39062002ec3565b60405180910390fd5b82600260008673ffffffffffffffffffffffffffffffffffffffff1673ffffffffffffffffffffffffffffffffffffffff16815260200190815260200160002060006101000a81548173ffffffffffffffffffffffffffffffffffffffff021916908373ffffffffffffffffffffffffffffffffffffffff1602179055508373ffffffffffffffffffffffffffffffffffffffff1663a6f9dae1846040518263ffffffff1660e01b815260040162000d959190620021f1565b600060405180830381600087803b15801562000db057600080fd5b505af115801562000dc5573d6000803e3d6000fd5b5050505062000dd684848462001863565b50505050565b62000de662001c17565b60008190505b60048054905081101562000ebf57600460018362000e0b919062002ee5565b8154811062000e1f5762000e1e620027c0565b5b9060005260206000200160009054906101000a900473ffffffffffffffffffffffffffffffffffffffff166004838154811062000e615762000e60620027c0565b5b9060005260206000200160006101000a81548173ffffffffffffffffffffffffffffffffffffffff021916908373ffffffffffffffffffffffffffffffffffffffff160217905550808062000eb6906200281e565b91505062000dec565b506000600260006004600160048054905062000edc919062002f20565b8154811062000ef05762000eef620027c0565b5b9060005260206000200160009054906101000a900473ffffffffffffffffffffffffffffffffffffffff1673ffffffffffffffffffffffffffffffffffffffff1673ffffffffffffffffffffffffffffffffffffffff16815260200190815260200160002060009054906101000a900473ffffffffffffffffffffffffffffffffffffffff1690506000805b600360008473ffffffffffffffffffffffffffffffffffffffff1673ffffffffffffffffffffffffffffffffffffffff16815260200190815260200160002080549050811015620010e7576004600160048054905062000fdd919062002f20565b8154811062000ff15762000ff0620027c0565b5b9060005260206000200160009054906101000a900473ffffffffffffffffffffffffffffffffffffffff1673ffffffffffffffffffffffffffffffffffffffff16600360008573ffffffffffffffffffffffffffffffffffffffff1673ffffffffffffffffffffffffffffffffffffffff1681526020019081526020016000208281548110620010865762001085620027c0565b5b9060005260206000200160009054906101000a900473ffffffffffffffffffffffffffffffffffffffff1673ffffffffffffffffffffffffffffffffffffffff1603620010d1578091505b8080620010de906200281e565b91505062000f7c565b50600360008373ffffffffffffffffffffffffffffffffffffffff1673ffffffffffffffffffffffffffffffffffffffff1681526020019081526020016000206001600360008573ffffffffffffffffffffffffffffffffffffffff1673ffffffffffffffffffffffffffffffffffffffff1681526020019081526020016000208054905062001178919062002f20565b815481106200118c576200118b620027c0565b5b9060005260206000200160009054906101000a900473ffffffffffffffffffffffffffffffffffffffff16600360008473ffffffffffffffffffffffffffffffffffffffff1673ffffffffffffffffffffffffffffffffffffffff16815260200190815260200160002082815481106200120b576200120a620027c0565b5b9060005260206000200160006101000a81548173ffffffffffffffffffffffffffffffffffffffff021916908373ffffffffffffffffffffffffffffffffffffffff16021790555060026000600460016004805490506200126d919062002f20565b81548110620012815762001280620027c0565b5b9060005260206000200160009054906101000a900473ffffffffffffffffffffffffffffffffffffffff1673ffffffffffffffffffffffffffffffffffffffff1673ffffffffffffffffffffffffffffffffffffffff16815260200190815260200160002060006101000a81549073ffffffffffffffffffffffffffffffffffffffff0219169055600360008373ffffffffffffffffffffffffffffffffffffffff1673ffffffffffffffffffffffffffffffffffffffff1681526020019081526020016000208054806200135b576200135a62002f5b565b5b6001900381819060005260206000200160006101000a81549073ffffffffffffffffffffffffffffffffffffffff021916905590556004805480620013a557620013a462002f5b565b5b6001900381819060005260206000200160006101000a81549073ffffffffffffffffffffffffffffffffffffffff02191690559055505050565b620013e962001c17565b620013f5600062001c9c565b565b60008060009054906101000a900473ffffffffffffffffffffffffffffffffffffffff16905090565b6000806000806200143062001d60565b905060006200143e62001d60565b6200144862001d6d565b6200145491906200297d565b90506000479050828282955095509550505050909192565b6000806060806000606060008060008060048b81548110620014935762001492620027c0565b5b9060005260206000200160009054906101000a900473ffffffffffffffffffffffffffffffffffffffff1673ffffffffffffffffffffffffffffffffffffffff1663f15358946040518163ffffffff1660e01b8152600401600060405180830381865afa15801562001509573d6000803e3d6000fd5b505050506040513d6000823e3d601f19601f8201168201806040525081019062001534919062003067565b99509950995099509950995099509950995099509193959799509193959799565b60008088888888888888336040516200156e9062001e6d565b62001581989796959493929190620031ba565b604051809103906000f0801580156200159e573d6000803e3d6000fd5b50905033600260008373ffffffffffffffffffffffffffffffffffffffff1673ffffffffffffffffffffffffffffffffffffffff16815260200190815260200160002060006101000a81548173ffffffffffffffffffffffffffffffffffffffff021916908373ffffffffffffffffffffffffffffffffffffffff1602179055506004819080600181540180825580915050600190039060005260206000200160009091909190916101000a81548173ffffffffffffffffffffffffffffffffffffffff021916908373ffffffffffffffffffffffffffffffffffffffff160217905550600360003373ffffffffffffffffffffffffffffffffffffffff1673ffffffffffffffffffffffffffffffffffffffff168152602001908152602001600020819080600181540180825580915050600190039060005260206000200160009091909190916101000a81548173ffffffffffffffffffffffffffffffffffffffff021916908373ffffffffffffffffffffffffffffffffffffffff16021790555080915050979650505050505050565b600080606080600060606000806000808a73ffffffffffffffffffffffffffffffffffffffff1663f15358946040518163ffffffff1660e01b8152600401600060405180830381865afa1580156200178d573d6000803e3d6000fd5b505050506040513d6000823e3d601f19601f82011682018060405250810190620017b8919062003067565b99509950995099509950995099509950995099509193959799509193959799565b620017e362001c17565b600073ffffffffffffffffffffffffffffffffffffffff168173ffffffffffffffffffffffffffffffffffffffff160362001855576040517f08c379a00000000000000000000000000000000000000000000000000000000081526004016200184c90620032d3565b60405180910390fd5b620018608162001c9c565b50565b6000805b600360008473ffffffffffffffffffffffffffffffffffffffff1673ffffffffffffffffffffffffffffffffffffffff168152602001908152602001600020805490508110156200197e578473ffffffffffffffffffffffffffffffffffffffff16600360008573ffffffffffffffffffffffffffffffffffffffff1673ffffffffffffffffffffffffffffffffffffffff16815260200190815260200160002082815481106200191d576200191c620027c0565b5b9060005260206000200160009054906101000a900473ffffffffffffffffffffffffffffffffffffffff1673ffffffffffffffffffffffffffffffffffffffff160362001968578091505b808062001975906200281e565b91505062001867565b50600360008373ffffffffffffffffffffffffffffffffffffffff1673ffffffffffffffffffffffffffffffffffffffff1681526020019081526020016000206001600360008573ffffffffffffffffffffffffffffffffffffffff1673ffffffffffffffffffffffffffffffffffffffff1681526020019081526020016000208054905062001a0f919062002f20565b8154811062001a235762001a22620027c0565b5b9060005260206000200160009054906101000a900473ffffffffffffffffffffffffffffffffffffffff16600360008473ffffffffffffffffffffffffffffffffffffffff1673ffffffffffffffffffffffffffffffffffffffff168152602001908152602001600020828154811062001aa25762001aa1620027c0565b5b9060005260206000200160006101000a81548173ffffffffffffffffffffffffffffffffffffffff021916908373ffffffffffffffffffffffffffffffffffffffff160217905550600360008373ffffffffffffffffffffffffffffffffffffffff1673ffffffffffffffffffffffffffffffffffffffff16815260200190815260200160002080548062001b3c5762001b3b62002f5b565b5b6001900381819060005260206000200160006101000a81549073ffffffffffffffffffffffffffffffffffffffff02191690559055600360008473ffffffffffffffffffffffffffffffffffffffff1673ffffffffffffffffffffffffffffffffffffffff168152602001908152602001600020849080600181540180825580915050600190039060005260206000200160009091909190916101000a81548173ffffffffffffffffffffffffffffffffffffffff021916908373ffffffffffffffffffffffffffffffffffffffff16021790555050505050565b62001c2162001e65565b73ffffffffffffffffffffffffffffffffffffffff1662001c41620013f7565b73ffffffffffffffffffffffffffffffffffffffff161462001c9a576040517f08c379a000000000000000000000000000000000000000000000000000000000815260040162001c919062003345565b60405180910390fd5b565b60008060009054906101000a900473ffffffffffffffffffffffffffffffffffffffff169050816000806101000a81548173ffffffffffffffffffffffffffffffffffffffff021916908373ffffffffffffffffffffffffffffffffffffffff1602179055508173ffffffffffffffffffffffffffffffffffffffff168173ffffffffffffffffffffffffffffffffffffffff167f8be0079c531659141344cd1fd0a4f28419497f9722a3daafe3b4186f6b6457e060405160405180910390a35050565b6000600480549050905090565b6000806000905060005b60048054905081101562001e5d576004818154811062001d9c5762001d9b620027c0565b5b9060005260206000200160009054906101000a900473ffffffffffffffffffffffffffffffffffffffff1673ffffffffffffffffffffffffffffffffffffffff166398d5fdca6040518163ffffffff1660e01b8152600401602060405180830381865afa15801562001e12573d6000803e3d6000fd5b505050506040513d601f19601f8201168201806040525081019062001e38919062002c53565b8262001e45919062002ee5565b9150808062001e54906200281e565b91505062001d77565b508091505090565b600033905090565b6112de806200336883390190565b6000819050919050565b62001e908162001e7b565b82525050565b600060208201905062001ead600083018462001e85565b92915050565b6000604051905090565b600080fd5b600080fd5b600073ffffffffffffffffffffffffffffffffffffffff82169050919050565b600062001ef48262001ec7565b9050919050565b62001f068162001ee7565b811462001f1257600080fd5b50565b60008135905062001f268162001efb565b92915050565b60006020828403121562001f455762001f4462001ebd565b5b600062001f558482850162001f15565b91505092915050565b600081519050919050565b600082825260208201905092915050565b6000819050602082019050919050565b6000819050919050565b600062001fb562001faf62001fa98462001ec7565b62001f8a565b62001ec7565b9050919050565b600062001fc98262001f94565b9050919050565b600062001fdd8262001fbc565b9050919050565b62001fef8162001fd0565b82525050565b600062002003838362001fe4565b60208301905092915050565b6000602082019050919050565b6000620020298262001f5e565b62002035818562001f69565b9350620020428362001f7a565b8060005b83811015620020795781516200205d888262001ff5565b97506200206a836200200f565b92505060018101905062002046565b5085935050505092915050565b60006020820190508181036000830152620020a281846200201c565b905092915050565b6000620020b78262001ee7565b9050919050565b620020c981620020aa565b8114620020d557600080fd5b50565b600081359050620020e981620020be565b92915050565b620020fa8162001e7b565b81146200210657600080fd5b50565b6000813590506200211a81620020ef565b92915050565b600080604083850312156200213a576200213962001ebd565b5b60006200214a85828601620020d8565b92505060206200215d8582860162002109565b9150509250929050565b6000806040838503121562002181576200218062001ebd565b5b60006200219185828601620020d8565b9250506020620021a48582860162001f15565b9150509250929050565b600060208284031215620021c757620021c662001ebd565b5b6000620021d78482850162002109565b91505092915050565b620021eb8162001ee7565b82525050565b6000602082019050620022086000830184620021e0565b92915050565b600060608201905062002225600083018662001e85565b62002234602083018562001e85565b62002243604083018462001e85565b949350505050565b6000819050919050565b62002260816200224b565b82525050565b600081519050919050565b600082825260208201905092915050565b60005b83811015620022a257808201518184015260208101905062002285565b60008484015250505050565b6000601f19601f8301169050919050565b6000620022cc8262002266565b620022d8818562002271565b9350620022ea81856020860162002282565b620022f581620022ae565b840191505092915050565b7f4e487b7100000000000000000000000000000000000000000000000000000000600052602160045260246000fd5b6003811062002343576200234262002300565b5b50565b600081905062002356826200232f565b919050565b6000620023688262002346565b9050919050565b6200237a816200235b565b82525050565b6003811062002394576200239362002300565b5b50565b6000819050620023a78262002380565b919050565b6000620023b98262002397565b9050919050565b620023cb81620023ac565b82525050565b60028110620023e557620023e462002300565b5b50565b6000819050620023f882620023d1565b919050565b60006200240a82620023e8565b9050919050565b6200241c81620023fd565b82525050565b6000610140820190506200243a600083018d620021e0565b62002449602083018c62002255565b81810360408301526200245d818b620022bf565b9050818103606083015262002473818a620022bf565b905062002484608083018962001e85565b81810360a0830152620024988188620022bf565b9050620024a960c08301876200236f565b620024b860e0830186620023c0565b620024c861010083018562002411565b620024d8610120830184620021e0565b9b9a5050505050505050505050565b600080fd5b600080fd5b7f4e487b7100000000000000000000000000000000000000000000000000000000600052604160045260246000fd5b6200252b82620022ae565b810181811067ffffffffffffffff821117156200254d576200254c620024f1565b5b80604052505050565b60006200256262001eb3565b905062002570828262002520565b919050565b600067ffffffffffffffff821115620025935762002592620024f1565b5b6200259e82620022ae565b9050602081019050919050565b82818337600083830152505050565b6000620025d1620025cb8462002575565b62002556565b905082815260208101848484011115620025f057620025ef620024ec565b5b620025fd848285620025ab565b509392505050565b600082601f8301126200261d576200261c620024e7565b5b81356200262f848260208601620025ba565b91505092915050565b600381106200264657600080fd5b50565b6000813590506200265a8162002638565b92915050565b600381106200266e57600080fd5b50565b600081359050620026828162002660565b92915050565b600281106200269657600080fd5b50565b600081359050620026aa8162002688565b92915050565b600080600080600080600060e0888a031215620026d257620026d162001ebd565b5b600088013567ffffffffffffffff811115620026f357620026f262001ec2565b5b620027018a828b0162002605565b975050602088013567ffffffffffffffff81111562002725576200272462001ec2565b5b620027338a828b0162002605565b965050604088013567ffffffffffffffff81111562002757576200275662001ec2565b5b620027658a828b0162002605565b9550506060620027788a828b0162002649565b94505060806200278b8a828b0162002109565b93505060a06200279e8a828b0162002671565b92505060c0620027b18a828b0162002699565b91505092959891949750929550565b7f4e487b7100000000000000000000000000000000000000000000000000000000600052603260045260246000fd5b7f4e487b7100000000000000000000000000000000000000000000000000000000600052601160045260246000fd5b60006200282b8262001e7b565b91507fffffffffffffffffffffffffffffffffffffffffffffffffffffffffffffffff820362002860576200285f620027ef565b5b600182019050919050565b7f596f7520617265206e6f7420746865206f776e6572206f66207468652074696360008201527f6b65740000000000000000000000000000000000000000000000000000000000602082015250565b6000620028c960238362002271565b9150620028d6826200286b565b604082019050919050565b60006020820190508181036000830152620028fc81620028ba565b9050919050565b6000620029108262001e7b565b91506200291d8362001e7b565b92508282026200292d8162001e7b565b91508282048414831517620029475762002946620027ef565b5b5092915050565b7f4e487b7100000000000000000000000000000000000000000000000000000000600052601260045260246000fd5b60006200298a8262001e7b565b9150620029978362001e7b565b925082620029aa57620029a96200294e565b5b828204905092915050565b7f54686520616d6f756e74207472616e7366657220697320696e7375666669636960008201527f656e740000000000000000000000000000000000000000000000000000000000602082015250565b600062002a1360238362002271565b915062002a2082620029b5565b604082019050919050565b6000602082019050818103600083015262002a468162002a04565b9050919050565b600060408201905062002a64600083018562001e85565b62002a73602083018462001e85565b9392505050565b60008151905062002a8b8162002688565b92915050565b60006020828403121562002aaa5762002aa962001ebd565b5b600062002aba8482850162002a7a565b91505092915050565b7f54686973207469636b65742063616e6e6f74206265207472616e73666572726560008201527f6400000000000000000000000000000000000000000000000000000000000000602082015250565b600062002b2160218362002271565b915062002b2e8262002ac3565b604082019050919050565b6000602082019050818103600083015262002b548162002b12565b9050919050565b60008151905062002b6c8162002660565b92915050565b60006020828403121562002b8b5762002b8a62001ebd565b5b600062002b9b8482850162002b5b565b91505092915050565b7f54686973207469636b6574206973206e6f742076616c696420666f722074726160008201527f6e73666572000000000000000000000000000000000000000000000000000000602082015250565b600062002c0260258362002271565b915062002c0f8262002ba4565b604082019050919050565b6000602082019050818103600083015262002c358162002bf3565b9050919050565b60008151905062002c4d81620020ef565b92915050565b60006020828403121562002c6c5762002c6b62001ebd565b5b600062002c7c8482850162002c3c565b91505092915050565b7f496e73756666696369656e7420616d6f756e7420746f206d616b65207468652060008201527f7075726368617365000000000000000000000000000000000000000000000000602082015250565b600062002ce360288362002271565b915062002cf08262002c85565b604082019050919050565b6000602082019050818103600083015262002d168162002cd4565b9050919050565b7f4f6e6c7920746865206e6577206f776e65722063616e20706572666f726d207460008201527f68697320616374696f6e2e000000000000000000000000000000000000000000602082015250565b600062002d7b602b8362002271565b915062002d888262002d1d565b604082019050919050565b6000602082019050818103600083015262002dae8162002d6c565b9050919050565b7f596f752063616e277420706572666f726d207468697320616374696f6e000000600082015250565b600062002ded601d8362002271565b915062002dfa8262002db5565b602082019050919050565b6000602082019050818103600083015262002e208162002dde565b9050919050565b600081905092915050565b50565b600062002e4460008362002e27565b915062002e518262002e32565b600082019050919050565b600062002e698262002e35565b9150819050919050565b7f5472616e73616374696f6e206661696c65642100000000000000000000000000600082015250565b600062002eab60138362002271565b915062002eb88262002e73565b602082019050919050565b6000602082019050818103600083015262002ede8162002e9c565b9050919050565b600062002ef28262001e7b565b915062002eff8362001e7b565b925082820190508082111562002f1a5762002f19620027ef565b5b92915050565b600062002f2d8262001e7b565b915062002f3a8362001e7b565b925082820390508181111562002f555762002f54620027ef565b5b92915050565b7f4e487b7100000000000000000000000000000000000000000000000000000000600052603160045260246000fd5b60008151905062002f9b8162001efb565b92915050565b62002fac816200224b565b811462002fb857600080fd5b50565b60008151905062002fcc8162002fa1565b92915050565b600062002fe962002fe38462002575565b62002556565b905082815260208101848484011115620030085762003007620024ec565b5b6200301584828562002282565b509392505050565b600082601f830112620030355762003034620024e7565b5b81516200304784826020860162002fd2565b91505092915050565b600081519050620030618162002638565b92915050565b6000806000806000806000806000806101408b8d0312156200308e576200308d62001ebd565b5b60006200309e8d828e0162002f8a565b9a50506020620030b18d828e0162002fbb565b99505060408b015167ffffffffffffffff811115620030d557620030d462001ec2565b5b620030e38d828e016200301d565b98505060608b015167ffffffffffffffff81111562003107576200310662001ec2565b5b620031158d828e016200301d565b9750506080620031288d828e0162002c3c565b96505060a08b015167ffffffffffffffff8111156200314c576200314b62001ec2565b5b6200315a8d828e016200301d565b95505060c06200316d8d828e0162003050565b94505060e0620031808d828e0162002b5b565b935050610100620031948d828e0162002a7a565b925050610120620031a88d828e0162002f8a565b9150509295989b9194979a5092959850565b6000610100820190508181036000830152620031d7818b620022bf565b90508181036020830152620031ed818a620022bf565b90508181036040830152620032038189620022bf565b90506200321460608301886200236f565b62003223608083018762001e85565b6200323260a0830186620023c0565b6200324160c083018562002411565b6200325060e0830184620021e0565b9998505050505050505050565b7f4f776e61626c653a206e6577206f776e657220697320746865207a65726f206160008201527f6464726573730000000000000000000000000000000000000000000000000000602082015250565b6000620032bb60268362002271565b9150620032c8826200325d565b604082019050919050565b60006020820190508181036000830152620032ee81620032ac565b9050919050565b7f4f776e61626c653a2063616c6c6572206973206e6f7420746865206f776e6572600082015250565b60006200332d60208362002271565b91506200333a82620032f5565b602082019050919050565b6000602082019050818103600083015262003360816200331e565b905091905056fe60806040523480156200001157600080fd5b50604051620012de380380620012de83398181016040528101906200003791906200044d565b6200004a8888866200016360201b60201c565b6000819055508760019081620000619190620007b4565b508660029081620000739190620007b4565b508560039081620000859190620007b4565b5084600460006101000a81548160ff02191690836002811115620000ae57620000ad6200089b565b5b02179055508360058190555082600660006101000a81548160ff02191690836002811115620000e257620000e16200089b565b5b021790555081600660016101000a81548160ff021916908360018111156200010f576200010e6200089b565b5b021790555080600660026101000a81548173ffffffffffffffffffffffffffffffffffffffff021916908373ffffffffffffffffffffffffffffffffffffffff16021790555050505050505050506200097f565b600080428585856040516020016200017f949392919062000931565b604051602081830303815290604052805190602001209050809150509392505050565b6000604051905090565b600080fd5b600080fd5b600080fd5b600080fd5b6000601f19601f8301169050919050565b7f4e487b7100000000000000000000000000000000000000000000000000000000600052604160045260246000fd5b6200020b82620001c0565b810181811067ffffffffffffffff821117156200022d576200022c620001d1565b5b80604052505050565b600062000242620001a2565b905062000250828262000200565b919050565b600067ffffffffffffffff821115620002735762000272620001d1565b5b6200027e82620001c0565b9050602081019050919050565b60005b83811015620002ab5780820151818401526020810190506200028e565b60008484015250505050565b6000620002ce620002c88462000255565b62000236565b905082815260208101848484011115620002ed57620002ec620001bb565b5b620002fa8482856200028b565b509392505050565b600082601f8301126200031a5762000319620001b6565b5b81516200032c848260208601620002b7565b91505092915050565b600381106200034357600080fd5b50565b600081519050620003578162000335565b92915050565b6000819050919050565b62000372816200035d565b81146200037e57600080fd5b50565b600081519050620003928162000367565b92915050565b60038110620003a657600080fd5b50565b600081519050620003ba8162000398565b92915050565b60028110620003ce57600080fd5b50565b600081519050620003e281620003c0565b92915050565b600073ffffffffffffffffffffffffffffffffffffffff82169050919050565b60006200041582620003e8565b9050919050565b620004278162000408565b81146200043357600080fd5b50565b60008151905062000447816200041c565b92915050565b600080600080600080600080610100898b031215620004715762000470620001ac565b5b600089015167ffffffffffffffff811115620004925762000491620001b1565b5b620004a08b828c0162000302565b985050602089015167ffffffffffffffff811115620004c457620004c3620001b1565b5b620004d28b828c0162000302565b975050604089015167ffffffffffffffff811115620004f657620004f5620001b1565b5b620005048b828c0162000302565b9650506060620005178b828c0162000346565b95505060806200052a8b828c0162000381565b94505060a06200053d8b828c01620003a9565b93505060c0620005508b828c01620003d1565b92505060e0620005638b828c0162000436565b9150509295985092959890939650565b600081519050919050565b7f4e487b7100000000000000000000000000000000000000000000000000000000600052602260045260246000fd5b60006002820490506001821680620005c657607f821691505b602082108103620005dc57620005db6200057e565b5b50919050565b60008190508160005260206000209050919050565b60006020601f8301049050919050565b600082821b905092915050565b600060088302620006467fffffffffffffffffffffffffffffffffffffffffffffffffffffffffffffffff8262000607565b62000652868362000607565b95508019841693508086168417925050509392505050565b6000819050919050565b6000620006956200068f62000689846200035d565b6200066a565b6200035d565b9050919050565b6000819050919050565b620006b18362000674565b620006c9620006c0826200069c565b84845462000614565b825550505050565b600090565b620006e0620006d1565b620006ed818484620006a6565b505050565b5b81811015620007155762000709600082620006d6565b600181019050620006f3565b5050565b601f82111562000764576200072e81620005e2565b6200073984620005f7565b8101602085101562000749578190505b620007616200075885620005f7565b830182620006f2565b50505b505050565b600082821c905092915050565b6000620007896000198460080262000769565b1980831691505092915050565b6000620007a4838362000776565b9150826002028217905092915050565b620007bf8262000573565b67ffffffffffffffff811115620007db57620007da620001d1565b5b620007e78254620005ad565b620007f482828562000719565b600060209050601f8311600181146200082c576000841562000817578287015190505b62000823858262000796565b86555062000893565b601f1984166200083c86620005e2565b60005b8281101562000866578489015182556001820191506020850194506020810190506200083f565b8683101562000886578489015162000882601f89168262000776565b8355505b6001600288020188555050505b505050505050565b7f4e487b7100000000000000000000000000000000000000000000000000000000600052602160045260246000fd5b6000819050919050565b620008e9620008e3826200035d565b620008ca565b82525050565b600081905092915050565b6000620009078262000573565b620009138185620008ef565b9350620009258185602086016200028b565b80840191505092915050565b60006200093f8287620008d4565b602082019150620009518286620008fa565b91506200095f8285620008fa565b91506200096d8284620008d4565b60208201915081905095945050505050565b61094f806200098f6000396000f3fe608060405234801561001057600080fd5b50600436106100885760003560e01c806398d5fdca1161005b57806398d5fdca14610101578063a2b40d191461011f578063a6f9dae11461013b578063f15358941461015757610088565b80631a6fb3421461008d57806337b7196d146100ab5780634e69d560146100c757806395bc9538146100e5575b600080fd5b61009561017e565b6040516100a2919061051b565b60405180910390f35b6100c560048036038101906100c09190610571565b610195565b005b6100cf6101d4565b6040516100dc91906105e6565b60405180910390f35b6100ff60048036038101906100fa9190610626565b6101eb565b005b610109610218565b6040516101169190610662565b60405180910390f35b61013960048036038101906101349190610571565b610222565b005b610155600480360381019061015091906106db565b61022c565b005b61015f610270565b6040516101759a99989796959493929190610808565b60405180910390f35b6000600660019054906101000a900460ff16905090565b8060018111156101a8576101a76104a4565b5b600660016101000a81548160ff021916908360018111156101cc576101cb6104a4565b5b021790555050565b6000600660009054906101000a900460ff16905090565b80600660006101000a81548160ff021916908360028111156102105761020f6104a4565b5b021790555050565b6000600554905090565b8060058190555050565b80600660026101000a81548173ffffffffffffffffffffffffffffffffffffffff021916908373ffffffffffffffffffffffffffffffffffffffff16021790555050565b6000806060806000606060008060008030600054600160026005546003600460009054906101000a900460ff16600660009054906101000a900460ff16600660019054906101000a900460ff16600660029054906101000a900473ffffffffffffffffffffffffffffffffffffffff168780546102ec906108e8565b80601f0160208091040260200160405190810160405280929190818152602001828054610318906108e8565b80156103655780601f1061033a57610100808354040283529160200191610365565b820191906000526020600020905b81548152906001019060200180831161034857829003601f168201915b50505050509750868054610378906108e8565b80601f01602080910402602001604051908101604052809291908181526020018280546103a4906108e8565b80156103f15780601f106103c6576101008083540402835291602001916103f1565b820191906000526020600020905b8154815290600101906020018083116103d457829003601f168201915b50505050509650848054610404906108e8565b80601f0160208091040260200160405190810160405280929190818152602001828054610430906108e8565b801561047d5780601f106104525761010080835404028352916020019161047d565b820191906000526020600020905b81548152906001019060200180831161046057829003601f168201915b50505050509450995099509950995099509950995099509950995090919293949596979899565b7f4e487b7100000000000000000000000000000000000000000000000000000000600052602160045260246000fd5b600281106104e4576104e36104a4565b5b50565b60008190506104f5826104d3565b919050565b6000610505826104e7565b9050919050565b610515816104fa565b82525050565b6000602082019050610530600083018461050c565b92915050565b600080fd5b6000819050919050565b61054e8161053b565b811461055957600080fd5b50565b60008135905061056b81610545565b92915050565b60006020828403121561058757610586610536565b5b60006105958482850161055c565b91505092915050565b600381106105af576105ae6104a4565b5b50565b60008190506105c08261059e565b919050565b60006105d0826105b2565b9050919050565b6105e0816105c5565b82525050565b60006020820190506105fb60008301846105d7565b92915050565b6003811061060e57600080fd5b50565b60008135905061062081610601565b92915050565b60006020828403121561063c5761063b610536565b5b600061064a84828501610611565b91505092915050565b61065c8161053b565b82525050565b60006020820190506106776000830184610653565b92915050565b600073ffffffffffffffffffffffffffffffffffffffff82169050919050565b60006106a88261067d565b9050919050565b6106b88161069d565b81146106c357600080fd5b50565b6000813590506106d5816106af565b92915050565b6000602082840312156106f1576106f0610536565b5b60006106ff848285016106c6565b91505092915050565b6107118161069d565b82525050565b6000819050919050565b61072a81610717565b82525050565b600081519050919050565b600082825260208201905092915050565b60005b8381101561076a57808201518184015260208101905061074f565b60008484015250505050565b6000601f19601f8301169050919050565b600061079282610730565b61079c818561073b565b93506107ac81856020860161074c565b6107b581610776565b840191505092915050565b600381106107d1576107d06104a4565b5b50565b60008190506107e2826107c0565b919050565b60006107f2826107d4565b9050919050565b610802816107e7565b82525050565b60006101408201905061081e600083018d610708565b61082b602083018c610721565b818103604083015261083d818b610787565b90508181036060830152610851818a610787565b90506108606080830189610653565b81810360a08301526108728188610787565b905061088160c08301876107f9565b61088e60e08301866105d7565b61089c61010083018561050c565b6108aa610120830184610708565b9b9a5050505050505050505050565b7f4e487b7100000000000000000000000000000000000000000000000000000000600052602260045260246000fd5b6000600282049050600182168061090057607f821691505b602082108103610913576109126108b9565b5b5091905056fea26469706673582212209ce68d6f6fac5b74974355efe7deecc41920070db7e16b9041c4ba2ccea3fa2b64736f6c63430008110033a26469706673582212207da20fe80ed22feabd19c7dc1c571d15720fe3be83449166bad3bfd5f74d1f8164736f6c63430008110033",
  "immutableReferences": {},
  "source": "// SPDX-License-Identifier: GPL-3.0\r\n\r\npragma solidity ^0.8.17;\r\n\r\nimport \"@openzeppelin/contracts/access/Ownable.sol\";\r\nimport \"./Ticket.sol\";\r\n\r\ncontract Manager is Ownable {\r\n    uint256 private commissionPercentage = 5;\r\n\r\n    mapping(Ticket => address) TicketsToOwners;\r\n    mapping(address => Ticket[]) ticketsPerUser;\r\n    Ticket[] private TicketList;\r\n\r\n    event FundsReceived(uint256 amount);\r\n    event CommissionCharged(uint256 feeCharged, uint256 contractBalance);\r\n\r\n    modifier isOwner(Ticket ticket) {\r\n        require(\r\n            TicketsToOwners[ticket] == msg.sender,\r\n            \"You are not the owner of the ticket\"\r\n        );\r\n        _;\r\n    }\r\n\r\n    receive() external payable {\r\n        emit FundsReceived(msg.value);\r\n    }\r\n\r\n    fallback() external payable {\r\n        emit FundsReceived(msg.value);\r\n    }\r\n\r\n    constructor() {}\r\n\r\n    // Funciones de uso privado del contrato Manager\r\n\r\n    function getTotalTickets() private view returns (uint256) {\r\n        return TicketList.length;\r\n    }\r\n\r\n    function getTotalAmountForTickets() private view returns (uint256) {\r\n        uint256 amount = 0;\r\n        for (uint256 i = 0; i < TicketList.length; i++) {\r\n            amount += Ticket(TicketList[i]).getPrice();\r\n        }\r\n        return amount;\r\n    }\r\n\r\n    function changeTicketOwnership(\r\n        Ticket ticket,\r\n        address _newOwner,\r\n        address _oldOwner\r\n    ) private {\r\n        // Encontramos la posicion del ticket en el array del mapping ticketsPerUser.\r\n        uint256 ticketPositionInArray = 0;\r\n        for (uint256 i = 0; i < ticketsPerUser[_oldOwner].length; i++) {\r\n            if (ticketsPerUser[_oldOwner][i] == ticket) {\r\n                ticketPositionInArray = i;\r\n            }\r\n        }\r\n\r\n        ticketsPerUser[_oldOwner][ticketPositionInArray] = ticketsPerUser[\r\n            _oldOwner\r\n        ][ticketsPerUser[_oldOwner].length - 1];\r\n        ticketsPerUser[_oldOwner].pop();\r\n        ticketsPerUser[_newOwner].push(ticket);\r\n    }\r\n\r\n    /*\r\n        Funcin para tokenizar un ticket. \r\n        Esto significa crear un nuevo Ticket con los datos correspondientes.\r\n    */\r\n\r\n    function createTicket(\r\n        string memory _eventName,\r\n        string memory _eventDate,\r\n        string memory _eventDescription,\r\n        EventType _eventType,\r\n        uint256 _price,\r\n        TicketStatus _status,\r\n        TransferStatus _transferStatus\r\n    ) public returns (address _ticket) {\r\n        Ticket ticket = new Ticket(\r\n            _eventName,\r\n            _eventDate,\r\n            _eventDescription,\r\n            _eventType,\r\n            _price,\r\n            _status,\r\n            _transferStatus,\r\n            msg.sender\r\n        );\r\n        TicketsToOwners[ticket] = msg.sender;\r\n        TicketList.push(ticket);\r\n        // en transfer ticket hay que modificar para hacer este cambio de\r\n        // propiedad en el mapping ticketsPerUser.\r\n        ticketsPerUser[msg.sender].push(ticket);\r\n        return address(ticket);\r\n    }\r\n\r\n    /*\r\n        Funcin para ver todos los tickets que contiene la plataforma,\r\n        sin importar quien sea el dueo.\r\n    */\r\n    function showAllTickets(uint256 _ticketIndex)\r\n        public\r\n        view\r\n        returns (\r\n            address ticketAddress,\r\n            bytes32 idTicket,\r\n            string memory eventName,\r\n            string memory eventDate,\r\n            uint256 price,\r\n            string memory eventDescription,\r\n            EventType eventType,\r\n            TicketStatus status,\r\n            TransferStatus transferStatus,\r\n            address owner\r\n        )\r\n    {\r\n        return Ticket(TicketList[_ticketIndex]).showInformation();\r\n    }\r\n\r\n    /*\r\n        Funcin para ver todos los tickets que contiene la plataforma a partir\r\n        de su address.\r\n    */\r\n\r\n    function showTicketsByAddress(address _ticketAddress)\r\n        public\r\n        view\r\n        returns (\r\n            address ticketAddress,\r\n            bytes32 idTicket,\r\n            string memory eventName,\r\n            string memory eventDate,\r\n            uint256 price,\r\n            string memory eventDescription,\r\n            EventType eventType,\r\n            TicketStatus status,\r\n            TransferStatus transferStatus,\r\n            address owner\r\n        )\r\n    {\r\n        return Ticket(_ticketAddress).showInformation();\r\n    }\r\n\r\n    /*\r\n        Funcin para ver los tickets que estn asignados a un dueo particular (address).\r\n    */\r\n\r\n    function showTicketsPerUser(address _owner)\r\n        public\r\n        view\r\n        returns (Ticket[] memory userTickets)\r\n    {\r\n        uint256 length = ticketsPerUser[_owner].length;\r\n        Ticket[] memory tickets = new Ticket[](length);\r\n\r\n        for (uint256 i = 0; i < length; i++) {\r\n            tickets[i] = ticketsPerUser[_owner][i];\r\n        }\r\n\r\n        return tickets;\r\n    }\r\n\r\n    /*\r\n        Funcin para permitir la transferencia de un ticket segn su estado,\r\n        es decir, que si un Ticket tiene un estado Transferible, puede cambiar de dueo. \r\n        Permitiendo que el nuevo dueo enve ethers a travs de la plataforma y \r\n        que el dueo anterior reciba esos ethers.\r\n    */\r\n\r\n    function transferTicket(Ticket ticket, address _newOwner) public payable {\r\n        require(\r\n            ticket.getTransferStatus() == TransferStatus.TRANSFERIBLE,\r\n            \"This ticket cannot be transferred\"\r\n        );\r\n        require(\r\n            ticket.getStatus() == TicketStatus.VALID,\r\n            \"This ticket is not valid for transfer\"\r\n        );\r\n        require(\r\n            msg.value >= ticket.getPrice(),\r\n            \"Insufficient amount to make the purchase\"\r\n        );\r\n        require(\r\n            msg.sender == _newOwner,\r\n            \"Only the new owner can perform this action.\"\r\n        );\r\n        address oldOwner = TicketsToOwners[ticket];\r\n        require(_newOwner != oldOwner, \"You can't perform this action\");\r\n        (bool success, ) = oldOwner.call{value: msg.value}(\"\");\r\n        require(success == true, \"Transaction failed!\");\r\n        TicketsToOwners[ticket] = _newOwner;\r\n        Ticket(ticket).changeOwner(_newOwner);\r\n        changeTicketOwnership(ticket, _newOwner, oldOwner);\r\n    }\r\n\r\n    /*\r\n        Funcin para permitir que el dueo de un ticket pueda cambiar el precio del mismo,\r\n        pero en ese caso el contrato Manager cobra un 5% de comisin y queda en su balance.\r\n    */\r\n\r\n    function changeTicketPrice(Ticket ticket, uint256 _newPrice)\r\n        public\r\n        payable\r\n        isOwner(ticket)\r\n    {\r\n        uint256 managerFee = (_newPrice * commissionPercentage) / 100;\r\n        require(msg.value >= managerFee, \"The amount transfer is insufficient\");\r\n        Ticket(ticket).changePrice(_newPrice);\r\n        emit CommissionCharged(msg.value, address(this).balance);\r\n    }\r\n\r\n    /*\r\n        Funcin para cambiar el status de transferencia del ticket\r\n    */\r\n\r\n    function changeTransferStatus(Ticket _ticket, uint256 _newStatus)\r\n        public\r\n        isOwner(_ticket)\r\n    {\r\n        _ticket.changeTransferStatus(_newStatus);\r\n    }\r\n\r\n    /*\r\n        Funcin para retornar la cantidad de tickets que tiene la plataforma, \r\n        el precio promedio de los tickets y el balance del contrato Manager. \r\n    */\r\n\r\n    function showStatistics()\r\n        public\r\n        view\r\n        returns (\r\n            uint256 totalTickets,\r\n            uint256 averagePriceForTicket,\r\n            uint256 contractBalance\r\n        )\r\n    {\r\n        uint256 a = getTotalTickets();\r\n        uint256 b = getTotalAmountForTickets() / getTotalTickets();\r\n        uint256 c = address(this).balance;\r\n        return (a, b, c);\r\n    }\r\n\r\n    /*\r\n        Funcin para eliminar el ticket de la lista. \r\n    */\r\n\r\n    function deleteTicket(uint256 _ticketPositionInArray) public onlyOwner {\r\n        for (uint256 i = _ticketPositionInArray; i < TicketList.length; i++) {\r\n            TicketList[_ticketPositionInArray] = TicketList[\r\n                _ticketPositionInArray + 1\r\n            ];\r\n        }\r\n\r\n        address owner = TicketsToOwners[TicketList[TicketList.length - 1]];\r\n\r\n        uint256 ticketPositionInUserArray = 0;\r\n        for (uint256 i = 0; i < ticketsPerUser[owner].length; i++) {\r\n            if (\r\n                ticketsPerUser[owner][i] ==\r\n                Ticket(TicketList[TicketList.length - 1])\r\n            ) {\r\n                ticketPositionInUserArray = i;\r\n            }\r\n        }\r\n\r\n        ticketsPerUser[owner][ticketPositionInUserArray] = ticketsPerUser[\r\n            owner\r\n        ][ticketsPerUser[owner].length - 1];\r\n\r\n        delete TicketsToOwners[Ticket(TicketList[TicketList.length - 1])];\r\n        ticketsPerUser[owner].pop();\r\n        TicketList.pop();\r\n    }\r\n}\r\n",
  "sourcePath": "C:\\Users\\Mauro\\Desktop\\Solidity\\sc-ticketapp\\contracts\\Manager.sol",
  "compiler": {
    "name": "solc",
    "version": "0.8.17+commit.8df45f5f.Emscripten.clang"
  },
  "schemaVersion": "3.4.10",
  "updatedAt": "2022-12-06T02:39:16.239Z",
  "networkType": "ethereum",
  "devdoc": {
    "kind": "dev",
    "methods": {
      "owner()": {
        "details": "Returns the address of the current owner."
      },
      "renounceOwnership()": {
        "details": "Leaves the contract without owner. It will not be possible to call `onlyOwner` functions anymore. Can only be called by the current owner. NOTE: Renouncing ownership will leave the contract without an owner, thereby removing any functionality that is only available to the owner."
      },
      "transferOwnership(address)": {
        "details": "Transfers ownership of the contract to a new account (`newOwner`). Can only be called by the current owner."
      }
    },
    "version": 1
  },
  "userdoc": {
    "kind": "user",
    "methods": {},
    "version": 1
  }
}