{
  "contractName": "Ticket",
  "abi": [
    {
      "inputs": [
        {
          "internalType": "string",
          "name": "_eventName",
          "type": "string"
        },
        {
          "internalType": "string",
          "name": "_eventDate",
          "type": "string"
        },
        {
          "internalType": "string",
          "name": "_eventDescription",
          "type": "string"
        },
        {
          "internalType": "enum EventType",
          "name": "_eventType",
          "type": "uint8"
        },
        {
          "internalType": "uint256",
          "name": "_price",
          "type": "uint256"
        },
        {
          "internalType": "enum TicketStatus",
          "name": "_status",
          "type": "uint8"
        },
        {
          "internalType": "enum TransferStatus",
          "name": "_transferStatus",
          "type": "uint8"
        },
        {
          "internalType": "address",
          "name": "_owner",
          "type": "address"
        }
      ],
      "stateMutability": "nonpayable",
      "type": "constructor"
    },
    {
      "inputs": [],
      "name": "getPrice",
      "outputs": [
        {
          "internalType": "uint256",
          "name": "",
          "type": "uint256"
        }
      ],
      "stateMutability": "view",
      "type": "function"
    },
    {
      "inputs": [],
      "name": "getStatus",
      "outputs": [
        {
          "internalType": "enum TicketStatus",
          "name": "",
          "type": "uint8"
        }
      ],
      "stateMutability": "view",
      "type": "function"
    },
    {
      "inputs": [],
      "name": "getTransferStatus",
      "outputs": [
        {
          "internalType": "enum TransferStatus",
          "name": "",
          "type": "uint8"
        }
      ],
      "stateMutability": "view",
      "type": "function"
    },
    {
      "inputs": [
        {
          "internalType": "uint256",
          "name": "_newPrice",
          "type": "uint256"
        }
      ],
      "name": "changePrice",
      "outputs": [],
      "stateMutability": "nonpayable",
      "type": "function"
    },
    {
      "inputs": [
        {
          "internalType": "uint256",
          "name": "_status",
          "type": "uint256"
        }
      ],
      "name": "changeTransferStatus",
      "outputs": [],
      "stateMutability": "nonpayable",
      "type": "function"
    },
    {
      "inputs": [
        {
          "internalType": "enum TicketStatus",
          "name": "_newStatus",
          "type": "uint8"
        }
      ],
      "name": "changeStatus",
      "outputs": [],
      "stateMutability": "nonpayable",
      "type": "function"
    },
    {
      "inputs": [
        {
          "internalType": "address",
          "name": "_newOwner",
          "type": "address"
        }
      ],
      "name": "changeOwner",
      "outputs": [],
      "stateMutability": "nonpayable",
      "type": "function"
    },
    {
      "inputs": [],
      "name": "showInformation",
      "outputs": [
        {
          "internalType": "address",
          "name": "_ticketAddress",
          "type": "address"
        },
        {
          "internalType": "bytes32",
          "name": "_idTicket",
          "type": "bytes32"
        },
        {
          "internalType": "string",
          "name": "_eventName",
          "type": "string"
        },
        {
          "internalType": "string",
          "name": "_eventDate",
          "type": "string"
        },
        {
          "internalType": "uint256",
          "name": "_price",
          "type": "uint256"
        },
        {
          "internalType": "string",
          "name": "_eventDescription",
          "type": "string"
        },
        {
          "internalType": "enum EventType",
          "name": "_eventType",
          "type": "uint8"
        },
        {
          "internalType": "enum TicketStatus",
          "name": "_status",
          "type": "uint8"
        },
        {
          "internalType": "enum TransferStatus",
          "name": "_transferStatus",
          "type": "uint8"
        },
        {
          "internalType": "address",
          "name": "_owner",
          "type": "address"
        }
      ],
      "stateMutability": "view",
      "type": "function"
    }
  ],
  "bytecode": "0x60806040523480156200001157600080fd5b50604051620012de380380620012de83398181016040528101906200003791906200044d565b6200004a8888866200016360201b60201c565b6000819055508760019081620000619190620007b4565b508660029081620000739190620007b4565b508560039081620000859190620007b4565b5084600460006101000a81548160ff02191690836002811115620000ae57620000ad6200089b565b5b02179055508360058190555082600660006101000a81548160ff02191690836002811115620000e257620000e16200089b565b5b021790555081600660016101000a81548160ff021916908360018111156200010f576200010e6200089b565b5b021790555080600660026101000a81548173ffffffffffffffffffffffffffffffffffffffff021916908373ffffffffffffffffffffffffffffffffffffffff16021790555050505050505050506200097f565b600080428585856040516020016200017f949392919062000931565b604051602081830303815290604052805190602001209050809150509392505050565b6000604051905090565b600080fd5b600080fd5b600080fd5b600080fd5b6000601f19601f8301169050919050565b7f4e487b7100000000000000000000000000000000000000000000000000000000600052604160045260246000fd5b6200020b82620001c0565b810181811067ffffffffffffffff821117156200022d576200022c620001d1565b5b80604052505050565b600062000242620001a2565b905062000250828262000200565b919050565b600067ffffffffffffffff821115620002735762000272620001d1565b5b6200027e82620001c0565b9050602081019050919050565b60005b83811015620002ab5780820151818401526020810190506200028e565b60008484015250505050565b6000620002ce620002c88462000255565b62000236565b905082815260208101848484011115620002ed57620002ec620001bb565b5b620002fa8482856200028b565b509392505050565b600082601f8301126200031a5762000319620001b6565b5b81516200032c848260208601620002b7565b91505092915050565b600381106200034357600080fd5b50565b600081519050620003578162000335565b92915050565b6000819050919050565b62000372816200035d565b81146200037e57600080fd5b50565b600081519050620003928162000367565b92915050565b60038110620003a657600080fd5b50565b600081519050620003ba8162000398565b92915050565b60028110620003ce57600080fd5b50565b600081519050620003e281620003c0565b92915050565b600073ffffffffffffffffffffffffffffffffffffffff82169050919050565b60006200041582620003e8565b9050919050565b620004278162000408565b81146200043357600080fd5b50565b60008151905062000447816200041c565b92915050565b600080600080600080600080610100898b031215620004715762000470620001ac565b5b600089015167ffffffffffffffff811115620004925762000491620001b1565b5b620004a08b828c0162000302565b985050602089015167ffffffffffffffff811115620004c457620004c3620001b1565b5b620004d28b828c0162000302565b975050604089015167ffffffffffffffff811115620004f657620004f5620001b1565b5b620005048b828c0162000302565b9650506060620005178b828c0162000346565b95505060806200052a8b828c0162000381565b94505060a06200053d8b828c01620003a9565b93505060c0620005508b828c01620003d1565b92505060e0620005638b828c0162000436565b9150509295985092959890939650565b600081519050919050565b7f4e487b7100000000000000000000000000000000000000000000000000000000600052602260045260246000fd5b60006002820490506001821680620005c657607f821691505b602082108103620005dc57620005db6200057e565b5b50919050565b60008190508160005260206000209050919050565b60006020601f8301049050919050565b600082821b905092915050565b600060088302620006467fffffffffffffffffffffffffffffffffffffffffffffffffffffffffffffffff8262000607565b62000652868362000607565b95508019841693508086168417925050509392505050565b6000819050919050565b6000620006956200068f62000689846200035d565b6200066a565b6200035d565b9050919050565b6000819050919050565b620006b18362000674565b620006c9620006c0826200069c565b84845462000614565b825550505050565b600090565b620006e0620006d1565b620006ed818484620006a6565b505050565b5b81811015620007155762000709600082620006d6565b600181019050620006f3565b5050565b601f82111562000764576200072e81620005e2565b6200073984620005f7565b8101602085101562000749578190505b620007616200075885620005f7565b830182620006f2565b50505b505050565b600082821c905092915050565b6000620007896000198460080262000769565b1980831691505092915050565b6000620007a4838362000776565b9150826002028217905092915050565b620007bf8262000573565b67ffffffffffffffff811115620007db57620007da620001d1565b5b620007e78254620005ad565b620007f482828562000719565b600060209050601f8311600181146200082c576000841562000817578287015190505b62000823858262000796565b86555062000893565b601f1984166200083c86620005e2565b60005b8281101562000866578489015182556001820191506020850194506020810190506200083f565b8683101562000886578489015162000882601f89168262000776565b8355505b6001600288020188555050505b505050505050565b7f4e487b7100000000000000000000000000000000000000000000000000000000600052602160045260246000fd5b6000819050919050565b620008e9620008e3826200035d565b620008ca565b82525050565b600081905092915050565b6000620009078262000573565b620009138185620008ef565b9350620009258185602086016200028b565b80840191505092915050565b60006200093f8287620008d4565b602082019150620009518286620008fa565b91506200095f8285620008fa565b91506200096d8284620008d4565b60208201915081905095945050505050565b61094f806200098f6000396000f3fe608060405234801561001057600080fd5b50600436106100885760003560e01c806398d5fdca1161005b57806398d5fdca14610101578063a2b40d191461011f578063a6f9dae11461013b578063f15358941461015757610088565b80631a6fb3421461008d57806337b7196d146100ab5780634e69d560146100c757806395bc9538146100e5575b600080fd5b61009561017e565b6040516100a2919061051b565b60405180910390f35b6100c560048036038101906100c09190610571565b610195565b005b6100cf6101d4565b6040516100dc91906105e6565b60405180910390f35b6100ff60048036038101906100fa9190610626565b6101eb565b005b610109610218565b6040516101169190610662565b60405180910390f35b61013960048036038101906101349190610571565b610222565b005b610155600480360381019061015091906106db565b61022c565b005b61015f610270565b6040516101759a99989796959493929190610808565b60405180910390f35b6000600660019054906101000a900460ff16905090565b8060018111156101a8576101a76104a4565b5b600660016101000a81548160ff021916908360018111156101cc576101cb6104a4565b5b021790555050565b6000600660009054906101000a900460ff16905090565b80600660006101000a81548160ff021916908360028111156102105761020f6104a4565b5b021790555050565b6000600554905090565b8060058190555050565b80600660026101000a81548173ffffffffffffffffffffffffffffffffffffffff021916908373ffffffffffffffffffffffffffffffffffffffff16021790555050565b6000806060806000606060008060008030600054600160026005546003600460009054906101000a900460ff16600660009054906101000a900460ff16600660019054906101000a900460ff16600660029054906101000a900473ffffffffffffffffffffffffffffffffffffffff168780546102ec906108e8565b80601f0160208091040260200160405190810160405280929190818152602001828054610318906108e8565b80156103655780601f1061033a57610100808354040283529160200191610365565b820191906000526020600020905b81548152906001019060200180831161034857829003601f168201915b50505050509750868054610378906108e8565b80601f01602080910402602001604051908101604052809291908181526020018280546103a4906108e8565b80156103f15780601f106103c6576101008083540402835291602001916103f1565b820191906000526020600020905b8154815290600101906020018083116103d457829003601f168201915b50505050509650848054610404906108e8565b80601f0160208091040260200160405190810160405280929190818152602001828054610430906108e8565b801561047d5780601f106104525761010080835404028352916020019161047d565b820191906000526020600020905b81548152906001019060200180831161046057829003601f168201915b50505050509450995099509950995099509950995099509950995090919293949596979899565b7f4e487b7100000000000000000000000000000000000000000000000000000000600052602160045260246000fd5b600281106104e4576104e36104a4565b5b50565b60008190506104f5826104d3565b919050565b6000610505826104e7565b9050919050565b610515816104fa565b82525050565b6000602082019050610530600083018461050c565b92915050565b600080fd5b6000819050919050565b61054e8161053b565b811461055957600080fd5b50565b60008135905061056b81610545565b92915050565b60006020828403121561058757610586610536565b5b60006105958482850161055c565b91505092915050565b600381106105af576105ae6104a4565b5b50565b60008190506105c08261059e565b919050565b60006105d0826105b2565b9050919050565b6105e0816105c5565b82525050565b60006020820190506105fb60008301846105d7565b92915050565b6003811061060e57600080fd5b50565b60008135905061062081610601565b92915050565b60006020828403121561063c5761063b610536565b5b600061064a84828501610611565b91505092915050565b61065c8161053b565b82525050565b60006020820190506106776000830184610653565b92915050565b600073ffffffffffffffffffffffffffffffffffffffff82169050919050565b60006106a88261067d565b9050919050565b6106b88161069d565b81146106c357600080fd5b50565b6000813590506106d5816106af565b92915050565b6000602082840312156106f1576106f0610536565b5b60006106ff848285016106c6565b91505092915050565b6107118161069d565b82525050565b6000819050919050565b61072a81610717565b82525050565b600081519050919050565b600082825260208201905092915050565b60005b8381101561076a57808201518184015260208101905061074f565b60008484015250505050565b6000601f19601f8301169050919050565b600061079282610730565b61079c818561073b565b93506107ac81856020860161074c565b6107b581610776565b840191505092915050565b600381106107d1576107d06104a4565b5b50565b60008190506107e2826107c0565b919050565b60006107f2826107d4565b9050919050565b610802816107e7565b82525050565b60006101408201905061081e600083018d610708565b61082b602083018c610721565b818103604083015261083d818b610787565b90508181036060830152610851818a610787565b90506108606080830189610653565b81810360a08301526108728188610787565b905061088160c08301876107f9565b61088e60e08301866105d7565b61089c61010083018561050c565b6108aa610120830184610708565b9b9a5050505050505050505050565b7f4e487b7100000000000000000000000000000000000000000000000000000000600052602260045260246000fd5b6000600282049050600182168061090057607f821691505b602082108103610913576109126108b9565b5b5091905056fea26469706673582212209ce68d6f6fac5b74974355efe7deecc41920070db7e16b9041c4ba2ccea3fa2b64736f6c63430008110033",
  "immutableReferences": {},
  "source": "// SPDX-License-Identifier: GPL-3.0\r\n\r\npragma solidity ^0.8.17;\r\n\r\nenum TransferStatus {\r\n    TRANSFERIBLE,\r\n    NO_TRANSFERIBLE\r\n}\r\n\r\nenum TicketStatus {\r\n    VALID,\r\n    USED,\r\n    EXPIRED\r\n}\r\n\r\nenum EventType {\r\n    SPORTS,\r\n    MUSIC,\r\n    CINEMA\r\n}\r\n\r\ncontract Ticket {\r\n    bytes32 private id;\r\n    string private eventName;\r\n    string private eventDate;\r\n    string private eventDescription;\r\n    EventType private eventType;\r\n    uint256 private price;\r\n    TicketStatus private status;\r\n    TransferStatus private transferStatus;\r\n    address private owner;\r\n\r\n    constructor(\r\n        string memory _eventName,\r\n        string memory _eventDate,\r\n        string memory _eventDescription,\r\n        EventType _eventType,\r\n        uint256 _price,\r\n        TicketStatus _status,\r\n        TransferStatus _transferStatus,\r\n        address _owner\r\n    ) {\r\n        id = generateId(_eventName, _eventDate, _price);\r\n        eventName = _eventName;\r\n        eventDate = _eventDate;\r\n        eventDescription = _eventDescription;\r\n        eventType = _eventType;\r\n        price = _price;\r\n        status = _status;\r\n        transferStatus = _transferStatus;\r\n        owner = _owner;\r\n    }\r\n\r\n    function getPrice() external view returns (uint256) {\r\n        return price;\r\n    }\r\n\r\n    function getStatus() external view returns (TicketStatus) {\r\n        return status;\r\n    }\r\n\r\n    function getTransferStatus() external view returns (TransferStatus) {\r\n        return transferStatus;\r\n    }\r\n\r\n    function changePrice(uint256 _newPrice) external {\r\n        price = _newPrice;\r\n    }\r\n\r\n    function changeTransferStatus(uint256 _status) external {\r\n        transferStatus = TransferStatus(_status);\r\n    }\r\n\r\n    function changeStatus(TicketStatus _newStatus) external {\r\n        status = _newStatus;\r\n    }\r\n\r\n    function changeOwner(address _newOwner) external {\r\n        owner = _newOwner;\r\n    }\r\n\r\n    function generateId(\r\n        string memory _eventName,\r\n        string memory _eventDate,\r\n        uint256 _price\r\n    ) private view returns (bytes32 idTicket) {\r\n        bytes32 hash = keccak256(\r\n            abi.encodePacked(block.timestamp, _eventName, _eventDate, _price)\r\n        );\r\n        return hash;\r\n    }\r\n\r\n    function showInformation()\r\n        public\r\n        view\r\n        returns (\r\n            address _ticketAddress,\r\n            bytes32 _idTicket,\r\n            string memory _eventName,\r\n            string memory _eventDate,\r\n            uint256 _price,\r\n            string memory _eventDescription,\r\n            EventType _eventType,\r\n            TicketStatus _status,\r\n            TransferStatus _transferStatus,\r\n            address _owner\r\n        )\r\n    {\r\n        return (\r\n            address(this),\r\n            id,\r\n            eventName,\r\n            eventDate,\r\n            price,\r\n            eventDescription,\r\n            eventType,\r\n            status,\r\n            transferStatus,\r\n            owner\r\n        );\r\n    }\r\n}\r\n",
  "sourcePath": "C:\\Users\\Mauro\\Desktop\\Solidity\\sc-ticketapp\\contracts\\Ticket.sol",
  "compiler": {
    "name": "solc",
    "version": "0.8.17+commit.8df45f5f.Emscripten.clang"
  },
  "schemaVersion": "3.4.10",
  "updatedAt": "2022-12-06T02:38:03.170Z",
  "devdoc": {
    "kind": "dev",
    "methods": {},
    "version": 1
  },
  "userdoc": {
    "kind": "user",
    "methods": {},
    "version": 1
  }
}